{
  "_format": "hh-sol-artifact-1",
  "contractName": "Invest",
  "sourceName": "contracts/Invest.sol",
  "abi": [
    {
      "inputs": [],
      "name": "deposit",
      "outputs": [],
      "stateMutability": "payable",
      "type": "function"
    },
    {
      "inputs": [],
      "name": "totalDeposit",
      "outputs": [
        {
          "internalType": "uint256",
          "name": "",
          "type": "uint256"
        }
      ],
      "stateMutability": "view",
      "type": "function"
    }
  ],
  "bytecode": "0x608060405234801561001057600080fd5b50610210806100206000396000f3fe6080604052600436106100295760003560e01c8063d0e30db01461002e578063f6153ccd14610038575b600080fd5b610036610063565b005b34801561004457600080fd5b5061004d6100c0565b60405161005a91906100df565b60405180910390f35b600034116100a6576040517f08c379a000000000000000000000000000000000000000000000000000000000815260040161009d90610157565b60405180910390fd5b346000808282546100b791906101a6565b92505081905550565b60005481565b6000819050919050565b6100d9816100c6565b82525050565b60006020820190506100f460008301846100d0565b92915050565b600082825260208201905092915050565b7f596f75206861766520746f20696e7665737420736f6d65204554480000000000600082015250565b6000610141601b836100fa565b915061014c8261010b565b602082019050919050565b6000602082019050818103600083015261017081610134565b9050919050565b7f4e487b7100000000000000000000000000000000000000000000000000000000600052601160045260246000fd5b60006101b1826100c6565b91506101bc836100c6565b92508282019050808211156101d4576101d3610177565b5b9291505056fea2646970667358221220c0212ef1bef9d730ac63c9819906035535536bc01e80d2013434ef5c6069b9b564736f6c63430008180033",
  "linkReferences": {},
  "deployedLinkReferences": {}
}