{
  "_format": "hh-sol-artifact-1",
  "contractName": "ShareStocks",
  "sourceName": "contracts/ShareToken.sol",
  "abi": [
    {
      "inputs": [
        {
          "internalType": "uint256",
          "name": "initialSupply",
          "type": "uint256"
        },
        {
          "internalType": "uint256",
          "name": "initialPrice",
          "type": "uint256"
        }
      ],
      "stateMutability": "nonpayable",
      "type": "constructor"
    },
    {
      "inputs": [
        {
          "internalType": "address",
          "name": "spender",
          "type": "address"
        },
        {
          "internalType": "uint256",
          "name": "allowance",
          "type": "uint256"
        },
        {
          "internalType": "uint256",
          "name": "needed",
          "type": "uint256"
        }
      ],
      "name": "ERC20InsufficientAllowance",
      "type": "error"
    },
    {
      "inputs": [
        {
          "internalType": "address",
          "name": "sender",
          "type": "address"
        },
        {
          "internalType": "uint256",
          "name": "balance",
          "type": "uint256"
        },
        {
          "internalType": "uint256",
          "name": "needed",
          "type": "uint256"
        }
      ],
      "name": "ERC20InsufficientBalance",
      "type": "error"
    },
    {
      "inputs": [
        {
          "internalType": "address",
          "name": "approver",
          "type": "address"
        }
      ],
      "name": "ERC20InvalidApprover",
      "type": "error"
    },
    {
      "inputs": [
        {
          "internalType": "address",
          "name": "receiver",
          "type": "address"
        }
      ],
      "name": "ERC20InvalidReceiver",
      "type": "error"
    },
    {
      "inputs": [
        {
          "internalType": "address",
          "name": "sender",
          "type": "address"
        }
      ],
      "name": "ERC20InvalidSender",
      "type": "error"
    },
    {
      "inputs": [
        {
          "internalType": "address",
          "name": "spender",
          "type": "address"
        }
      ],
      "name": "ERC20InvalidSpender",
      "type": "error"
    },
    {
      "inputs": [
        {
          "internalType": "address",
          "name": "owner",
          "type": "address"
        }
      ],
      "name": "OwnableInvalidOwner",
      "type": "error"
    },
    {
      "inputs": [
        {
          "internalType": "address",
          "name": "account",
          "type": "address"
        }
      ],
      "name": "OwnableUnauthorizedAccount",
      "type": "error"
    },
    {
      "anonymous": false,
      "inputs": [
        {
          "indexed": true,
          "internalType": "address",
          "name": "owner",
          "type": "address"
        },
        {
          "indexed": true,
          "internalType": "address",
          "name": "spender",
          "type": "address"
        },
        {
          "indexed": false,
          "internalType": "uint256",
          "name": "value",
          "type": "uint256"
        }
      ],
      "name": "Approval",
      "type": "event"
    },
    {
      "anonymous": false,
      "inputs": [
        {
          "indexed": true,
          "internalType": "address",
          "name": "previousOwner",
          "type": "address"
        },
        {
          "indexed": true,
          "internalType": "address",
          "name": "newOwner",
          "type": "address"
        }
      ],
      "name": "OwnershipTransferred",
      "type": "event"
    },
    {
      "anonymous": false,
      "inputs": [
        {
          "indexed": true,
          "internalType": "address",
          "name": "from",
          "type": "address"
        },
        {
          "indexed": true,
          "internalType": "address",
          "name": "to",
          "type": "address"
        },
        {
          "indexed": false,
          "internalType": "uint256",
          "name": "value",
          "type": "uint256"
        }
      ],
      "name": "Transfer",
      "type": "event"
    },
    {
      "inputs": [
        {
          "internalType": "address",
          "name": "owner",
          "type": "address"
        },
        {
          "internalType": "address",
          "name": "spender",
          "type": "address"
        }
      ],
      "name": "allowance",
      "outputs": [
        {
          "internalType": "uint256",
          "name": "",
          "type": "uint256"
        }
      ],
      "stateMutability": "view",
      "type": "function"
    },
    {
      "inputs": [
        {
          "internalType": "address",
          "name": "spender",
          "type": "address"
        },
        {
          "internalType": "uint256",
          "name": "value",
          "type": "uint256"
        }
      ],
      "name": "approve",
      "outputs": [
        {
          "internalType": "bool",
          "name": "",
          "type": "bool"
        }
      ],
      "stateMutability": "nonpayable",
      "type": "function"
    },
    {
      "inputs": [
        {
          "internalType": "address",
          "name": "account",
          "type": "address"
        }
      ],
      "name": "balanceOf",
      "outputs": [
        {
          "internalType": "uint256",
          "name": "",
          "type": "uint256"
        }
      ],
      "stateMutability": "view",
      "type": "function"
    },
    {
      "inputs": [],
      "name": "decimals",
      "outputs": [
        {
          "internalType": "uint8",
          "name": "",
          "type": "uint8"
        }
      ],
      "stateMutability": "view",
      "type": "function"
    },
    {
      "inputs": [],
      "name": "deposit",
      "outputs": [],
      "stateMutability": "payable",
      "type": "function"
    },
    {
      "inputs": [
        {
          "internalType": "address",
          "name": "account",
          "type": "address"
        }
      ],
      "name": "getBalance",
      "outputs": [
        {
          "internalType": "uint256",
          "name": "",
          "type": "uint256"
        }
      ],
      "stateMutability": "view",
      "type": "function"
    },
    {
      "inputs": [],
      "name": "name",
      "outputs": [
        {
          "internalType": "string",
          "name": "",
          "type": "string"
        }
      ],
      "stateMutability": "view",
      "type": "function"
    },
    {
      "inputs": [],
      "name": "owner",
      "outputs": [
        {
          "internalType": "address",
          "name": "",
          "type": "address"
        }
      ],
      "stateMutability": "view",
      "type": "function"
    },
    {
      "inputs": [],
      "name": "renounceOwnership",
      "outputs": [],
      "stateMutability": "nonpayable",
      "type": "function"
    },
    {
      "inputs": [
        {
          "internalType": "uint256",
          "name": "newPrice",
          "type": "uint256"
        }
      ],
      "name": "setTokenPrice",
      "outputs": [],
      "stateMutability": "nonpayable",
      "type": "function"
    },
    {
      "inputs": [],
      "name": "symbol",
      "outputs": [
        {
          "internalType": "string",
          "name": "",
          "type": "string"
        }
      ],
      "stateMutability": "view",
      "type": "function"
    },
    {
      "inputs": [],
      "name": "tokenPrice",
      "outputs": [
        {
          "internalType": "uint256",
          "name": "",
          "type": "uint256"
        }
      ],
      "stateMutability": "view",
      "type": "function"
    },
    {
      "inputs": [],
      "name": "totalDeposit",
      "outputs": [
        {
          "internalType": "uint256",
          "name": "",
          "type": "uint256"
        }
      ],
      "stateMutability": "view",
      "type": "function"
    },
    {
      "inputs": [],
      "name": "totalSupply",
      "outputs": [
        {
          "internalType": "uint256",
          "name": "",
          "type": "uint256"
        }
      ],
      "stateMutability": "view",
      "type": "function"
    },
    {
      "inputs": [
        {
          "internalType": "address",
          "name": "to",
          "type": "address"
        },
        {
          "internalType": "uint256",
          "name": "value",
          "type": "uint256"
        }
      ],
      "name": "transfer",
      "outputs": [
        {
          "internalType": "bool",
          "name": "",
          "type": "bool"
        }
      ],
      "stateMutability": "nonpayable",
      "type": "function"
    },
    {
      "inputs": [
        {
          "internalType": "address",
          "name": "from",
          "type": "address"
        },
        {
          "internalType": "address",
          "name": "to",
          "type": "address"
        },
        {
          "internalType": "uint256",
          "name": "value",
          "type": "uint256"
        }
      ],
      "name": "transferFrom",
      "outputs": [
        {
          "internalType": "bool",
          "name": "",
          "type": "bool"
        }
      ],
      "stateMutability": "nonpayable",
      "type": "function"
    },
    {
      "inputs": [
        {
          "internalType": "address",
          "name": "newOwner",
          "type": "address"
        }
      ],
      "name": "transferOwnership",
      "outputs": [],
      "stateMutability": "nonpayable",
      "type": "function"
    }
  ],
  "bytecode": "0x60806040523480156200001157600080fd5b5060405162001ec638038062001ec683398181016040528101906200003791906200054c565b336040518060400160405280600a81526020017f5368617265546f6b656e000000000000000000000000000000000000000000008152506040518060400160405280600381526020017f53425400000000000000000000000000000000000000000000000000000000008152508160039081620000b5919062000803565b508060049081620000c7919062000803565b505050600073ffffffffffffffffffffffffffffffffffffffff168173ffffffffffffffffffffffffffffffffffffffff16036200013f5760006040517f1e4fbdf70000000000000000000000000000000000000000000000000000000081526004016200013691906200092f565b60405180910390fd5b62000150816200018160201b60201c565b5080600781905550620001796200016c6200024760201b60201c565b836200024f60201b60201c565b505062000a21565b6000600560009054906101000a900473ffffffffffffffffffffffffffffffffffffffff16905081600560006101000a81548173ffffffffffffffffffffffffffffffffffffffff021916908373ffffffffffffffffffffffffffffffffffffffff1602179055508173ffffffffffffffffffffffffffffffffffffffff168173ffffffffffffffffffffffffffffffffffffffff167f8be0079c531659141344cd1fd0a4f28419497f9722a3daafe3b4186f6b6457e060405160405180910390a35050565b600033905090565b600073ffffffffffffffffffffffffffffffffffffffff168273ffffffffffffffffffffffffffffffffffffffff1603620002c45760006040517fec442f05000000000000000000000000000000000000000000000000000000008152600401620002bb91906200092f565b60405180910390fd5b620002d860008383620002dc60201b60201c565b5050565b600073ffffffffffffffffffffffffffffffffffffffff168373ffffffffffffffffffffffffffffffffffffffff1603620003325780600260008282546200032591906200097b565b9250508190555062000408565b60008060008573ffffffffffffffffffffffffffffffffffffffff1673ffffffffffffffffffffffffffffffffffffffff16815260200190815260200160002054905081811015620003c1578381836040517fe450d38c000000000000000000000000000000000000000000000000000000008152600401620003b893929190620009c7565b60405180910390fd5b8181036000808673ffffffffffffffffffffffffffffffffffffffff1673ffffffffffffffffffffffffffffffffffffffff16815260200190815260200160002081905550505b600073ffffffffffffffffffffffffffffffffffffffff168273ffffffffffffffffffffffffffffffffffffffff1603620004535780600260008282540392505081905550620004a0565b806000808473ffffffffffffffffffffffffffffffffffffffff1673ffffffffffffffffffffffffffffffffffffffff168152602001908152602001600020600082825401925050819055505b8173ffffffffffffffffffffffffffffffffffffffff168373ffffffffffffffffffffffffffffffffffffffff167fddf252ad1be2c89b69c2b068fc378daa952ba7f163c4a11628f55a4df523b3ef83604051620004ff919062000a04565b60405180910390a3505050565b600080fd5b6000819050919050565b620005268162000511565b81146200053257600080fd5b50565b60008151905062000546816200051b565b92915050565b600080604083850312156200056657620005656200050c565b5b6000620005768582860162000535565b9250506020620005898582860162000535565b9150509250929050565b600081519050919050565b7f4e487b7100000000000000000000000000000000000000000000000000000000600052604160045260246000fd5b7f4e487b7100000000000000000000000000000000000000000000000000000000600052602260045260246000fd5b600060028204905060018216806200061557607f821691505b6020821081036200062b576200062a620005cd565b5b50919050565b60008190508160005260206000209050919050565b60006020601f8301049050919050565b600082821b905092915050565b600060088302620006957fffffffffffffffffffffffffffffffffffffffffffffffffffffffffffffffff8262000656565b620006a1868362000656565b95508019841693508086168417925050509392505050565b6000819050919050565b6000620006e4620006de620006d88462000511565b620006b9565b62000511565b9050919050565b6000819050919050565b6200070083620006c3565b620007186200070f82620006eb565b84845462000663565b825550505050565b600090565b6200072f62000720565b6200073c818484620006f5565b505050565b5b8181101562000764576200075860008262000725565b60018101905062000742565b5050565b601f821115620007b3576200077d8162000631565b620007888462000646565b8101602085101562000798578190505b620007b0620007a78562000646565b83018262000741565b50505b505050565b600082821c905092915050565b6000620007d860001984600802620007b8565b1980831691505092915050565b6000620007f38383620007c5565b9150826002028217905092915050565b6200080e8262000593565b67ffffffffffffffff8111156200082a57620008296200059e565b5b620008368254620005fc565b6200084382828562000768565b600060209050601f8311600181146200087b576000841562000866578287015190505b620008728582620007e5565b865550620008e2565b601f1984166200088b8662000631565b60005b82811015620008b5578489015182556001820191506020850194506020810190506200088e565b86831015620008d55784890151620008d1601f891682620007c5565b8355505b6001600288020188555050505b505050505050565b600073ffffffffffffffffffffffffffffffffffffffff82169050919050565b60006200091782620008ea565b9050919050565b62000929816200090a565b82525050565b60006020820190506200094660008301846200091e565b92915050565b7f4e487b7100000000000000000000000000000000000000000000000000000000600052601160045260246000fd5b6000620009888262000511565b9150620009958362000511565b9250828201905080821115620009b057620009af6200094c565b5b92915050565b620009c18162000511565b82525050565b6000606082019050620009de60008301866200091e565b620009ed6020830185620009b6565b620009fc6040830184620009b6565b949350505050565b600060208201905062000a1b6000830184620009b6565b92915050565b6114958062000a316000396000f3fe6080604052600436106100fe5760003560e01c80637ff9b59611610095578063d0e30db011610064578063d0e30db014610339578063dd62ed3e14610343578063f2fde38b14610380578063f6153ccd146103a9578063f8b2cb4f146103d4576100fe565b80637ff9b5961461027b5780638da5cb5b146102a657806395d89b41146102d1578063a9059cbb146102fc576100fe565b8063313ce567116100d1578063313ce567146101d35780636a61e5fc146101fe57806370a0823114610227578063715018a614610264576100fe565b806306fdde0314610103578063095ea7b31461012e57806318160ddd1461016b57806323b872dd14610196575b600080fd5b34801561010f57600080fd5b50610118610411565b6040516101259190610ff0565b60405180910390f35b34801561013a57600080fd5b50610155600480360381019061015091906110ab565b6104a3565b6040516101629190611106565b60405180910390f35b34801561017757600080fd5b506101806104c6565b60405161018d9190611130565b60405180910390f35b3480156101a257600080fd5b506101bd60048036038101906101b8919061114b565b6104d0565b6040516101ca9190611106565b60405180910390f35b3480156101df57600080fd5b506101e86104ff565b6040516101f591906111ba565b60405180910390f35b34801561020a57600080fd5b50610225600480360381019061022091906111d5565b610508565b005b34801561023357600080fd5b5061024e60048036038101906102499190611202565b610512565b60405161025b9190611130565b60405180910390f35b34801561027057600080fd5b5061027961055a565b005b34801561028757600080fd5b5061029061056e565b60405161029d9190611130565b60405180910390f35b3480156102b257600080fd5b506102bb610574565b6040516102c8919061123e565b60405180910390f35b3480156102dd57600080fd5b506102e661059e565b6040516102f39190610ff0565b60405180910390f35b34801561030857600080fd5b50610323600480360381019061031e91906110ab565b610630565b6040516103309190611106565b60405180910390f35b610341610653565b005b34801561034f57600080fd5b5061036a60048036038101906103659190611259565b6106ce565b6040516103779190611130565b60405180910390f35b34801561038c57600080fd5b506103a760048036038101906103a29190611202565b610755565b005b3480156103b557600080fd5b506103be6107db565b6040516103cb9190611130565b60405180910390f35b3480156103e057600080fd5b506103fb60048036038101906103f69190611202565b6107e1565b6040516104089190611130565b60405180910390f35b606060038054610420906112c8565b80601f016020809104026020016040519081016040528092919081815260200182805461044c906112c8565b80156104995780601f1061046e57610100808354040283529160200191610499565b820191906000526020600020905b81548152906001019060200180831161047c57829003601f168201915b5050505050905090565b6000806104ae6107f3565b90506104bb8185856107fb565b600191505092915050565b6000600254905090565b6000806104db6107f3565b90506104e885828561080d565b6104f38585856108a1565b60019150509392505050565b60006012905090565b8060078190555050565b60008060008373ffffffffffffffffffffffffffffffffffffffff1673ffffffffffffffffffffffffffffffffffffffff168152602001908152602001600020549050919050565b610562610995565b61056c6000610a1c565b565b60075481565b6000600560009054906101000a900473ffffffffffffffffffffffffffffffffffffffff16905090565b6060600480546105ad906112c8565b80601f01602080910402602001604051908101604052809291908181526020018280546105d9906112c8565b80156106265780601f106105fb57610100808354040283529160200191610626565b820191906000526020600020905b81548152906001019060200180831161060957829003601f168201915b5050505050905090565b60008061063b6107f3565b90506106488185856108a1565b600191505092915050565b60003411610696576040517f08c379a000000000000000000000000000000000000000000000000000000000815260040161068d90611345565b60405180910390fd5b6000600754346106a691906113c3565b90506106b23382610ae2565b34600660008282546106c491906113f4565b9250508190555050565b6000600160008473ffffffffffffffffffffffffffffffffffffffff1673ffffffffffffffffffffffffffffffffffffffff16815260200190815260200160002060008373ffffffffffffffffffffffffffffffffffffffff1673ffffffffffffffffffffffffffffffffffffffff16815260200190815260200160002054905092915050565b61075d610995565b600073ffffffffffffffffffffffffffffffffffffffff168173ffffffffffffffffffffffffffffffffffffffff16036107cf5760006040517f1e4fbdf70000000000000000000000000000000000000000000000000000000081526004016107c6919061123e565b60405180910390fd5b6107d881610a1c565b50565b60065481565b60006107ec82610512565b9050919050565b600033905090565b6108088383836001610b64565b505050565b600061081984846106ce565b90507fffffffffffffffffffffffffffffffffffffffffffffffffffffffffffffffff811461089b578181101561088b578281836040517ffb8f41b200000000000000000000000000000000000000000000000000000000815260040161088293929190611428565b60405180910390fd5b61089a84848484036000610b64565b5b50505050565b600073ffffffffffffffffffffffffffffffffffffffff168373ffffffffffffffffffffffffffffffffffffffff16036109135760006040517f96c6fd1e00000000000000000000000000000000000000000000000000000000815260040161090a919061123e565b60405180910390fd5b600073ffffffffffffffffffffffffffffffffffffffff168273ffffffffffffffffffffffffffffffffffffffff16036109855760006040517fec442f0500000000000000000000000000000000000000000000000000000000815260040161097c919061123e565b60405180910390fd5b610990838383610d3b565b505050565b61099d6107f3565b73ffffffffffffffffffffffffffffffffffffffff166109bb610574565b73ffffffffffffffffffffffffffffffffffffffff1614610a1a576109de6107f3565b6040517f118cdaa7000000000000000000000000000000000000000000000000000000008152600401610a11919061123e565b60405180910390fd5b565b6000600560009054906101000a900473ffffffffffffffffffffffffffffffffffffffff16905081600560006101000a81548173ffffffffffffffffffffffffffffffffffffffff021916908373ffffffffffffffffffffffffffffffffffffffff1602179055508173ffffffffffffffffffffffffffffffffffffffff168173ffffffffffffffffffffffffffffffffffffffff167f8be0079c531659141344cd1fd0a4f28419497f9722a3daafe3b4186f6b6457e060405160405180910390a35050565b600073ffffffffffffffffffffffffffffffffffffffff168273ffffffffffffffffffffffffffffffffffffffff1603610b545760006040517fec442f05000000000000000000000000000000000000000000000000000000008152600401610b4b919061123e565b60405180910390fd5b610b6060008383610d3b565b5050565b600073ffffffffffffffffffffffffffffffffffffffff168473ffffffffffffffffffffffffffffffffffffffff1603610bd65760006040517fe602df05000000000000000000000000000000000000000000000000000000008152600401610bcd919061123e565b60405180910390fd5b600073ffffffffffffffffffffffffffffffffffffffff168373ffffffffffffffffffffffffffffffffffffffff1603610c485760006040517f94280d62000000000000000000000000000000000000000000000000000000008152600401610c3f919061123e565b60405180910390fd5b81600160008673ffffffffffffffffffffffffffffffffffffffff1673ffffffffffffffffffffffffffffffffffffffff16815260200190815260200160002060008573ffffffffffffffffffffffffffffffffffffffff1673ffffffffffffffffffffffffffffffffffffffff168152602001908152602001600020819055508015610d35578273ffffffffffffffffffffffffffffffffffffffff168473ffffffffffffffffffffffffffffffffffffffff167f8c5be1e5ebec7d5bd14f71427d1e84f3dd0314c0f7b2291e5b200ac8c7c3b92584604051610d2c9190611130565b60405180910390a35b50505050565b600073ffffffffffffffffffffffffffffffffffffffff168373ffffffffffffffffffffffffffffffffffffffff1603610d8d578060026000828254610d8191906113f4565b92505081905550610e60565b60008060008573ffffffffffffffffffffffffffffffffffffffff1673ffffffffffffffffffffffffffffffffffffffff16815260200190815260200160002054905081811015610e19578381836040517fe450d38c000000000000000000000000000000000000000000000000000000008152600401610e1093929190611428565b60405180910390fd5b8181036000808673ffffffffffffffffffffffffffffffffffffffff1673ffffffffffffffffffffffffffffffffffffffff16815260200190815260200160002081905550505b600073ffffffffffffffffffffffffffffffffffffffff168273ffffffffffffffffffffffffffffffffffffffff1603610ea95780600260008282540392505081905550610ef6565b806000808473ffffffffffffffffffffffffffffffffffffffff1673ffffffffffffffffffffffffffffffffffffffff168152602001908152602001600020600082825401925050819055505b8173ffffffffffffffffffffffffffffffffffffffff168373ffffffffffffffffffffffffffffffffffffffff167fddf252ad1be2c89b69c2b068fc378daa952ba7f163c4a11628f55a4df523b3ef83604051610f539190611130565b60405180910390a3505050565b600081519050919050565b600082825260208201905092915050565b60005b83811015610f9a578082015181840152602081019050610f7f565b60008484015250505050565b6000601f19601f8301169050919050565b6000610fc282610f60565b610fcc8185610f6b565b9350610fdc818560208601610f7c565b610fe581610fa6565b840191505092915050565b6000602082019050818103600083015261100a8184610fb7565b905092915050565b600080fd5b600073ffffffffffffffffffffffffffffffffffffffff82169050919050565b600061104282611017565b9050919050565b61105281611037565b811461105d57600080fd5b50565b60008135905061106f81611049565b92915050565b6000819050919050565b61108881611075565b811461109357600080fd5b50565b6000813590506110a58161107f565b92915050565b600080604083850312156110c2576110c1611012565b5b60006110d085828601611060565b92505060206110e185828601611096565b9150509250929050565b60008115159050919050565b611100816110eb565b82525050565b600060208201905061111b60008301846110f7565b92915050565b61112a81611075565b82525050565b60006020820190506111456000830184611121565b92915050565b60008060006060848603121561116457611163611012565b5b600061117286828701611060565b935050602061118386828701611060565b925050604061119486828701611096565b9150509250925092565b600060ff82169050919050565b6111b48161119e565b82525050565b60006020820190506111cf60008301846111ab565b92915050565b6000602082840312156111eb576111ea611012565b5b60006111f984828501611096565b91505092915050565b60006020828403121561121857611217611012565b5b600061122684828501611060565b91505092915050565b61123881611037565b82525050565b6000602082019050611253600083018461122f565b92915050565b600080604083850312156112705761126f611012565b5b600061127e85828601611060565b925050602061128f85828601611060565b9150509250929050565b7f4e487b7100000000000000000000000000000000000000000000000000000000600052602260045260246000fd5b600060028204905060018216806112e057607f821691505b6020821081036112f3576112f2611299565b5b50919050565b7f596f75206861766520746f20696e7665737420736f6d65204554480000000000600082015250565b600061132f601b83610f6b565b915061133a826112f9565b602082019050919050565b6000602082019050818103600083015261135e81611322565b9050919050565b7f4e487b7100000000000000000000000000000000000000000000000000000000600052601260045260246000fd5b7f4e487b7100000000000000000000000000000000000000000000000000000000600052601160045260246000fd5b60006113ce82611075565b91506113d983611075565b9250826113e9576113e8611365565b5b828204905092915050565b60006113ff82611075565b915061140a83611075565b925082820190508082111561142257611421611394565b5b92915050565b600060608201905061143d600083018661122f565b61144a6020830185611121565b6114576040830184611121565b94935050505056fea2646970667358221220b2067f280b2bec128a1db72521a8a71af0da5d84f9a3fa60aa8710a0dbb0ab4d64736f6c63430008180033",
  "linkReferences": {},
  "deployedLinkReferences": {}
}