{
  "_format": "hh-sol-artifact-1",
  "contractName": "ShareToken",
  "sourceName": "contracts/ShareToken.sol",
  "abi": [
    {
      "inputs": [
        {
          "internalType": "uint256",
          "name": "initialSupply",
          "type": "uint256"
        },
        {
          "internalType": "uint256",
          "name": "initialPrice",
          "type": "uint256"
        }
      ],
      "stateMutability": "nonpayable",
      "type": "constructor"
    },
    {
      "inputs": [
        {
          "internalType": "address",
          "name": "spender",
          "type": "address"
        },
        {
          "internalType": "uint256",
          "name": "allowance",
          "type": "uint256"
        },
        {
          "internalType": "uint256",
          "name": "needed",
          "type": "uint256"
        }
      ],
      "name": "ERC20InsufficientAllowance",
      "type": "error"
    },
    {
      "inputs": [
        {
          "internalType": "address",
          "name": "sender",
          "type": "address"
        },
        {
          "internalType": "uint256",
          "name": "balance",
          "type": "uint256"
        },
        {
          "internalType": "uint256",
          "name": "needed",
          "type": "uint256"
        }
      ],
      "name": "ERC20InsufficientBalance",
      "type": "error"
    },
    {
      "inputs": [
        {
          "internalType": "address",
          "name": "approver",
          "type": "address"
        }
      ],
      "name": "ERC20InvalidApprover",
      "type": "error"
    },
    {
      "inputs": [
        {
          "internalType": "address",
          "name": "receiver",
          "type": "address"
        }
      ],
      "name": "ERC20InvalidReceiver",
      "type": "error"
    },
    {
      "inputs": [
        {
          "internalType": "address",
          "name": "sender",
          "type": "address"
        }
      ],
      "name": "ERC20InvalidSender",
      "type": "error"
    },
    {
      "inputs": [
        {
          "internalType": "address",
          "name": "spender",
          "type": "address"
        }
      ],
      "name": "ERC20InvalidSpender",
      "type": "error"
    },
    {
      "inputs": [
        {
          "internalType": "address",
          "name": "owner",
          "type": "address"
        }
      ],
      "name": "OwnableInvalidOwner",
      "type": "error"
    },
    {
      "inputs": [
        {
          "internalType": "address",
          "name": "account",
          "type": "address"
        }
      ],
      "name": "OwnableUnauthorizedAccount",
      "type": "error"
    },
    {
      "anonymous": false,
      "inputs": [
        {
          "indexed": true,
          "internalType": "address",
          "name": "owner",
          "type": "address"
        },
        {
          "indexed": true,
          "internalType": "address",
          "name": "spender",
          "type": "address"
        },
        {
          "indexed": false,
          "internalType": "uint256",
          "name": "value",
          "type": "uint256"
        }
      ],
      "name": "Approval",
      "type": "event"
    },
    {
      "anonymous": false,
      "inputs": [
        {
          "indexed": true,
          "internalType": "address",
          "name": "previousOwner",
          "type": "address"
        },
        {
          "indexed": true,
          "internalType": "address",
          "name": "newOwner",
          "type": "address"
        }
      ],
      "name": "OwnershipTransferred",
      "type": "event"
    },
    {
      "anonymous": false,
      "inputs": [
        {
          "indexed": true,
          "internalType": "address",
          "name": "from",
          "type": "address"
        },
        {
          "indexed": true,
          "internalType": "address",
          "name": "to",
          "type": "address"
        },
        {
          "indexed": false,
          "internalType": "uint256",
          "name": "value",
          "type": "uint256"
        }
      ],
      "name": "Transfer",
      "type": "event"
    },
    {
      "inputs": [
        {
          "internalType": "address",
          "name": "owner",
          "type": "address"
        },
        {
          "internalType": "address",
          "name": "spender",
          "type": "address"
        }
      ],
      "name": "allowance",
      "outputs": [
        {
          "internalType": "uint256",
          "name": "",
          "type": "uint256"
        }
      ],
      "stateMutability": "view",
      "type": "function"
    },
    {
      "inputs": [
        {
          "internalType": "address",
          "name": "spender",
          "type": "address"
        },
        {
          "internalType": "uint256",
          "name": "value",
          "type": "uint256"
        }
      ],
      "name": "approve",
      "outputs": [
        {
          "internalType": "bool",
          "name": "",
          "type": "bool"
        }
      ],
      "stateMutability": "nonpayable",
      "type": "function"
    },
    {
      "inputs": [
        {
          "internalType": "address",
          "name": "account",
          "type": "address"
        }
      ],
      "name": "balanceOf",
      "outputs": [
        {
          "internalType": "uint256",
          "name": "",
          "type": "uint256"
        }
      ],
      "stateMutability": "view",
      "type": "function"
    },
    {
      "inputs": [],
      "name": "decimals",
      "outputs": [
        {
          "internalType": "uint8",
          "name": "",
          "type": "uint8"
        }
      ],
      "stateMutability": "view",
      "type": "function"
    },
    {
      "inputs": [],
      "name": "deposit",
      "outputs": [],
      "stateMutability": "payable",
      "type": "function"
    },
    {
      "inputs": [],
      "name": "name",
      "outputs": [
        {
          "internalType": "string",
          "name": "",
          "type": "string"
        }
      ],
      "stateMutability": "view",
      "type": "function"
    },
    {
      "inputs": [],
      "name": "owner",
      "outputs": [
        {
          "internalType": "address",
          "name": "",
          "type": "address"
        }
      ],
      "stateMutability": "view",
      "type": "function"
    },
    {
      "inputs": [],
      "name": "renounceOwnership",
      "outputs": [],
      "stateMutability": "nonpayable",
      "type": "function"
    },
    {
      "inputs": [
        {
          "internalType": "uint256",
          "name": "newPrice",
          "type": "uint256"
        }
      ],
      "name": "setTokenPrice",
      "outputs": [],
      "stateMutability": "nonpayable",
      "type": "function"
    },
    {
      "inputs": [],
      "name": "symbol",
      "outputs": [
        {
          "internalType": "string",
          "name": "",
          "type": "string"
        }
      ],
      "stateMutability": "view",
      "type": "function"
    },
    {
      "inputs": [],
      "name": "tokenPrice",
      "outputs": [
        {
          "internalType": "uint256",
          "name": "",
          "type": "uint256"
        }
      ],
      "stateMutability": "view",
      "type": "function"
    },
    {
      "inputs": [],
      "name": "totalDeposit",
      "outputs": [
        {
          "internalType": "uint256",
          "name": "",
          "type": "uint256"
        }
      ],
      "stateMutability": "view",
      "type": "function"
    },
    {
      "inputs": [],
      "name": "totalSupply",
      "outputs": [
        {
          "internalType": "uint256",
          "name": "",
          "type": "uint256"
        }
      ],
      "stateMutability": "view",
      "type": "function"
    },
    {
      "inputs": [
        {
          "internalType": "address",
          "name": "to",
          "type": "address"
        },
        {
          "internalType": "uint256",
          "name": "value",
          "type": "uint256"
        }
      ],
      "name": "transfer",
      "outputs": [
        {
          "internalType": "bool",
          "name": "",
          "type": "bool"
        }
      ],
      "stateMutability": "nonpayable",
      "type": "function"
    },
    {
      "inputs": [
        {
          "internalType": "address",
          "name": "from",
          "type": "address"
        },
        {
          "internalType": "address",
          "name": "to",
          "type": "address"
        },
        {
          "internalType": "uint256",
          "name": "value",
          "type": "uint256"
        }
      ],
      "name": "transferFrom",
      "outputs": [
        {
          "internalType": "bool",
          "name": "",
          "type": "bool"
        }
      ],
      "stateMutability": "nonpayable",
      "type": "function"
    },
    {
      "inputs": [
        {
          "internalType": "address",
          "name": "newOwner",
          "type": "address"
        }
      ],
      "name": "transferOwnership",
      "outputs": [],
      "stateMutability": "nonpayable",
      "type": "function"
    }
  ],
  "bytecode": "0x60806040523480156200001157600080fd5b5060405162001e6c38038062001e6c83398181016040528101906200003791906200054c565b336040518060400160405280600a81526020017f5368617265546f6b656e000000000000000000000000000000000000000000008152506040518060400160405280600381526020017f53425400000000000000000000000000000000000000000000000000000000008152508160039081620000b5919062000803565b508060049081620000c7919062000803565b505050600073ffffffffffffffffffffffffffffffffffffffff168173ffffffffffffffffffffffffffffffffffffffff16036200013f5760006040517f1e4fbdf70000000000000000000000000000000000000000000000000000000081526004016200013691906200092f565b60405180910390fd5b62000150816200018160201b60201c565b5080600781905550620001796200016c6200024760201b60201c565b836200024f60201b60201c565b505062000a21565b6000600560009054906101000a900473ffffffffffffffffffffffffffffffffffffffff16905081600560006101000a81548173ffffffffffffffffffffffffffffffffffffffff021916908373ffffffffffffffffffffffffffffffffffffffff1602179055508173ffffffffffffffffffffffffffffffffffffffff168173ffffffffffffffffffffffffffffffffffffffff167f8be0079c531659141344cd1fd0a4f28419497f9722a3daafe3b4186f6b6457e060405160405180910390a35050565b600033905090565b600073ffffffffffffffffffffffffffffffffffffffff168273ffffffffffffffffffffffffffffffffffffffff1603620002c45760006040517fec442f05000000000000000000000000000000000000000000000000000000008152600401620002bb91906200092f565b60405180910390fd5b620002d860008383620002dc60201b60201c565b5050565b600073ffffffffffffffffffffffffffffffffffffffff168373ffffffffffffffffffffffffffffffffffffffff1603620003325780600260008282546200032591906200097b565b9250508190555062000408565b60008060008573ffffffffffffffffffffffffffffffffffffffff1673ffffffffffffffffffffffffffffffffffffffff16815260200190815260200160002054905081811015620003c1578381836040517fe450d38c000000000000000000000000000000000000000000000000000000008152600401620003b893929190620009c7565b60405180910390fd5b8181036000808673ffffffffffffffffffffffffffffffffffffffff1673ffffffffffffffffffffffffffffffffffffffff16815260200190815260200160002081905550505b600073ffffffffffffffffffffffffffffffffffffffff168273ffffffffffffffffffffffffffffffffffffffff1603620004535780600260008282540392505081905550620004a0565b806000808473ffffffffffffffffffffffffffffffffffffffff1673ffffffffffffffffffffffffffffffffffffffff168152602001908152602001600020600082825401925050819055505b8173ffffffffffffffffffffffffffffffffffffffff168373ffffffffffffffffffffffffffffffffffffffff167fddf252ad1be2c89b69c2b068fc378daa952ba7f163c4a11628f55a4df523b3ef83604051620004ff919062000a04565b60405180910390a3505050565b600080fd5b6000819050919050565b620005268162000511565b81146200053257600080fd5b50565b60008151905062000546816200051b565b92915050565b600080604083850312156200056657620005656200050c565b5b6000620005768582860162000535565b9250506020620005898582860162000535565b9150509250929050565b600081519050919050565b7f4e487b7100000000000000000000000000000000000000000000000000000000600052604160045260246000fd5b7f4e487b7100000000000000000000000000000000000000000000000000000000600052602260045260246000fd5b600060028204905060018216806200061557607f821691505b6020821081036200062b576200062a620005cd565b5b50919050565b60008190508160005260206000209050919050565b60006020601f8301049050919050565b600082821b905092915050565b600060088302620006957fffffffffffffffffffffffffffffffffffffffffffffffffffffffffffffffff8262000656565b620006a1868362000656565b95508019841693508086168417925050509392505050565b6000819050919050565b6000620006e4620006de620006d88462000511565b620006b9565b62000511565b9050919050565b6000819050919050565b6200070083620006c3565b620007186200070f82620006eb565b84845462000663565b825550505050565b600090565b6200072f62000720565b6200073c818484620006f5565b505050565b5b8181101562000764576200075860008262000725565b60018101905062000742565b5050565b601f821115620007b3576200077d8162000631565b620007888462000646565b8101602085101562000798578190505b620007b0620007a78562000646565b83018262000741565b50505b505050565b600082821c905092915050565b6000620007d860001984600802620007b8565b1980831691505092915050565b6000620007f38383620007c5565b9150826002028217905092915050565b6200080e8262000593565b67ffffffffffffffff8111156200082a57620008296200059e565b5b620008368254620005fc565b6200084382828562000768565b600060209050601f8311600181146200087b576000841562000866578287015190505b620008728582620007e5565b865550620008e2565b601f1984166200088b8662000631565b60005b82811015620008b5578489015182556001820191506020850194506020810190506200088e565b86831015620008d55784890151620008d1601f891682620007c5565b8355505b6001600288020188555050505b505050505050565b600073ffffffffffffffffffffffffffffffffffffffff82169050919050565b60006200091782620008ea565b9050919050565b62000929816200090a565b82525050565b60006020820190506200094660008301846200091e565b92915050565b7f4e487b7100000000000000000000000000000000000000000000000000000000600052601160045260246000fd5b6000620009888262000511565b9150620009958362000511565b9250828201905080821115620009b057620009af6200094c565b5b92915050565b620009c18162000511565b82525050565b6000606082019050620009de60008301866200091e565b620009ed6020830185620009b6565b620009fc6040830184620009b6565b949350505050565b600060208201905062000a1b6000830184620009b6565b92915050565b61143b8062000a316000396000f3fe6080604052600436106100f35760003560e01c80637ff9b5961161008a578063d0e30db011610059578063d0e30db01461032e578063dd62ed3e14610338578063f2fde38b14610375578063f6153ccd1461039e576100f3565b80637ff9b596146102705780638da5cb5b1461029b57806395d89b41146102c6578063a9059cbb146102f1576100f3565b8063313ce567116100c6578063313ce567146101c85780636a61e5fc146101f357806370a082311461021c578063715018a614610259576100f3565b806306fdde03146100f8578063095ea7b31461012357806318160ddd1461016057806323b872dd1461018b575b600080fd5b34801561010457600080fd5b5061010d6103c9565b60405161011a9190610f96565b60405180910390f35b34801561012f57600080fd5b5061014a60048036038101906101459190611051565b61045b565b60405161015791906110ac565b60405180910390f35b34801561016c57600080fd5b5061017561047e565b60405161018291906110d6565b60405180910390f35b34801561019757600080fd5b506101b260048036038101906101ad91906110f1565b610488565b6040516101bf91906110ac565b60405180910390f35b3480156101d457600080fd5b506101dd6104b7565b6040516101ea9190611160565b60405180910390f35b3480156101ff57600080fd5b5061021a6004803603810190610215919061117b565b6104c0565b005b34801561022857600080fd5b50610243600480360381019061023e91906111a8565b6104ca565b60405161025091906110d6565b60405180910390f35b34801561026557600080fd5b5061026e610512565b005b34801561027c57600080fd5b50610285610526565b60405161029291906110d6565b60405180910390f35b3480156102a757600080fd5b506102b061052c565b6040516102bd91906111e4565b60405180910390f35b3480156102d257600080fd5b506102db610556565b6040516102e89190610f96565b60405180910390f35b3480156102fd57600080fd5b5061031860048036038101906103139190611051565b6105e8565b60405161032591906110ac565b60405180910390f35b61033661060b565b005b34801561034457600080fd5b5061035f600480360381019061035a91906111ff565b610686565b60405161036c91906110d6565b60405180910390f35b34801561038157600080fd5b5061039c600480360381019061039791906111a8565b61070d565b005b3480156103aa57600080fd5b506103b3610793565b6040516103c091906110d6565b60405180910390f35b6060600380546103d89061126e565b80601f01602080910402602001604051908101604052809291908181526020018280546104049061126e565b80156104515780601f1061042657610100808354040283529160200191610451565b820191906000526020600020905b81548152906001019060200180831161043457829003601f168201915b5050505050905090565b600080610466610799565b90506104738185856107a1565b600191505092915050565b6000600254905090565b600080610493610799565b90506104a08582856107b3565b6104ab858585610847565b60019150509392505050565b60006012905090565b8060078190555050565b60008060008373ffffffffffffffffffffffffffffffffffffffff1673ffffffffffffffffffffffffffffffffffffffff168152602001908152602001600020549050919050565b61051a61093b565b61052460006109c2565b565b60075481565b6000600560009054906101000a900473ffffffffffffffffffffffffffffffffffffffff16905090565b6060600480546105659061126e565b80601f01602080910402602001604051908101604052809291908181526020018280546105919061126e565b80156105de5780601f106105b3576101008083540402835291602001916105de565b820191906000526020600020905b8154815290600101906020018083116105c157829003601f168201915b5050505050905090565b6000806105f3610799565b9050610600818585610847565b600191505092915050565b6000341161064e576040517f08c379a0000000000000000000000000000000000000000000000000000000008152600401610645906112eb565b60405180910390fd5b60006007543461065e9190611369565b905061066a3382610a88565b346006600082825461067c919061139a565b9250508190555050565b6000600160008473ffffffffffffffffffffffffffffffffffffffff1673ffffffffffffffffffffffffffffffffffffffff16815260200190815260200160002060008373ffffffffffffffffffffffffffffffffffffffff1673ffffffffffffffffffffffffffffffffffffffff16815260200190815260200160002054905092915050565b61071561093b565b600073ffffffffffffffffffffffffffffffffffffffff168173ffffffffffffffffffffffffffffffffffffffff16036107875760006040517f1e4fbdf700000000000000000000000000000000000000000000000000000000815260040161077e91906111e4565b60405180910390fd5b610790816109c2565b50565b60065481565b600033905090565b6107ae8383836001610b0a565b505050565b60006107bf8484610686565b90507fffffffffffffffffffffffffffffffffffffffffffffffffffffffffffffffff81146108415781811015610831578281836040517ffb8f41b2000000000000000000000000000000000000000000000000000000008152600401610828939291906113ce565b60405180910390fd5b61084084848484036000610b0a565b5b50505050565b600073ffffffffffffffffffffffffffffffffffffffff168373ffffffffffffffffffffffffffffffffffffffff16036108b95760006040517f96c6fd1e0000000000000000000000000000000000000000000000000000000081526004016108b091906111e4565b60405180910390fd5b600073ffffffffffffffffffffffffffffffffffffffff168273ffffffffffffffffffffffffffffffffffffffff160361092b5760006040517fec442f0500000000000000000000000000000000000000000000000000000000815260040161092291906111e4565b60405180910390fd5b610936838383610ce1565b505050565b610943610799565b73ffffffffffffffffffffffffffffffffffffffff1661096161052c565b73ffffffffffffffffffffffffffffffffffffffff16146109c057610984610799565b6040517f118cdaa70000000000000000000000000000000000000000000000000000000081526004016109b791906111e4565b60405180910390fd5b565b6000600560009054906101000a900473ffffffffffffffffffffffffffffffffffffffff16905081600560006101000a81548173ffffffffffffffffffffffffffffffffffffffff021916908373ffffffffffffffffffffffffffffffffffffffff1602179055508173ffffffffffffffffffffffffffffffffffffffff168173ffffffffffffffffffffffffffffffffffffffff167f8be0079c531659141344cd1fd0a4f28419497f9722a3daafe3b4186f6b6457e060405160405180910390a35050565b600073ffffffffffffffffffffffffffffffffffffffff168273ffffffffffffffffffffffffffffffffffffffff1603610afa5760006040517fec442f05000000000000000000000000000000000000000000000000000000008152600401610af191906111e4565b60405180910390fd5b610b0660008383610ce1565b5050565b600073ffffffffffffffffffffffffffffffffffffffff168473ffffffffffffffffffffffffffffffffffffffff1603610b7c5760006040517fe602df05000000000000000000000000000000000000000000000000000000008152600401610b7391906111e4565b60405180910390fd5b600073ffffffffffffffffffffffffffffffffffffffff168373ffffffffffffffffffffffffffffffffffffffff1603610bee5760006040517f94280d62000000000000000000000000000000000000000000000000000000008152600401610be591906111e4565b60405180910390fd5b81600160008673ffffffffffffffffffffffffffffffffffffffff1673ffffffffffffffffffffffffffffffffffffffff16815260200190815260200160002060008573ffffffffffffffffffffffffffffffffffffffff1673ffffffffffffffffffffffffffffffffffffffff168152602001908152602001600020819055508015610cdb578273ffffffffffffffffffffffffffffffffffffffff168473ffffffffffffffffffffffffffffffffffffffff167f8c5be1e5ebec7d5bd14f71427d1e84f3dd0314c0f7b2291e5b200ac8c7c3b92584604051610cd291906110d6565b60405180910390a35b50505050565b600073ffffffffffffffffffffffffffffffffffffffff168373ffffffffffffffffffffffffffffffffffffffff1603610d33578060026000828254610d27919061139a565b92505081905550610e06565b60008060008573ffffffffffffffffffffffffffffffffffffffff1673ffffffffffffffffffffffffffffffffffffffff16815260200190815260200160002054905081811015610dbf578381836040517fe450d38c000000000000000000000000000000000000000000000000000000008152600401610db6939291906113ce565b60405180910390fd5b8181036000808673ffffffffffffffffffffffffffffffffffffffff1673ffffffffffffffffffffffffffffffffffffffff16815260200190815260200160002081905550505b600073ffffffffffffffffffffffffffffffffffffffff168273ffffffffffffffffffffffffffffffffffffffff1603610e4f5780600260008282540392505081905550610e9c565b806000808473ffffffffffffffffffffffffffffffffffffffff1673ffffffffffffffffffffffffffffffffffffffff168152602001908152602001600020600082825401925050819055505b8173ffffffffffffffffffffffffffffffffffffffff168373ffffffffffffffffffffffffffffffffffffffff167fddf252ad1be2c89b69c2b068fc378daa952ba7f163c4a11628f55a4df523b3ef83604051610ef991906110d6565b60405180910390a3505050565b600081519050919050565b600082825260208201905092915050565b60005b83811015610f40578082015181840152602081019050610f25565b60008484015250505050565b6000601f19601f8301169050919050565b6000610f6882610f06565b610f728185610f11565b9350610f82818560208601610f22565b610f8b81610f4c565b840191505092915050565b60006020820190508181036000830152610fb08184610f5d565b905092915050565b600080fd5b600073ffffffffffffffffffffffffffffffffffffffff82169050919050565b6000610fe882610fbd565b9050919050565b610ff881610fdd565b811461100357600080fd5b50565b60008135905061101581610fef565b92915050565b6000819050919050565b61102e8161101b565b811461103957600080fd5b50565b60008135905061104b81611025565b92915050565b6000806040838503121561106857611067610fb8565b5b600061107685828601611006565b92505060206110878582860161103c565b9150509250929050565b60008115159050919050565b6110a681611091565b82525050565b60006020820190506110c1600083018461109d565b92915050565b6110d08161101b565b82525050565b60006020820190506110eb60008301846110c7565b92915050565b60008060006060848603121561110a57611109610fb8565b5b600061111886828701611006565b935050602061112986828701611006565b925050604061113a8682870161103c565b9150509250925092565b600060ff82169050919050565b61115a81611144565b82525050565b60006020820190506111756000830184611151565b92915050565b60006020828403121561119157611190610fb8565b5b600061119f8482850161103c565b91505092915050565b6000602082840312156111be576111bd610fb8565b5b60006111cc84828501611006565b91505092915050565b6111de81610fdd565b82525050565b60006020820190506111f960008301846111d5565b92915050565b6000806040838503121561121657611215610fb8565b5b600061122485828601611006565b925050602061123585828601611006565b9150509250929050565b7f4e487b7100000000000000000000000000000000000000000000000000000000600052602260045260246000fd5b6000600282049050600182168061128657607f821691505b6020821081036112995761129861123f565b5b50919050565b7f596f75206861766520746f20696e7665737420736f6d65204554480000000000600082015250565b60006112d5601b83610f11565b91506112e08261129f565b602082019050919050565b60006020820190508181036000830152611304816112c8565b9050919050565b7f4e487b7100000000000000000000000000000000000000000000000000000000600052601260045260246000fd5b7f4e487b7100000000000000000000000000000000000000000000000000000000600052601160045260246000fd5b60006113748261101b565b915061137f8361101b565b92508261138f5761138e61130b565b5b828204905092915050565b60006113a58261101b565b91506113b08361101b565b92508282019050808211156113c8576113c761133a565b5b92915050565b60006060820190506113e360008301866111d5565b6113f060208301856110c7565b6113fd60408301846110c7565b94935050505056fea26469706673582212200a11021409aa4ae3f3ab2c5586c6102a59a03d5b8edf38c144b7189a0cadbacf64736f6c63430008180033",
  "linkReferences": {},
  "deployedLinkReferences": {}
}